{
  "transactions": [
    {
      "hash": "0xd4843ad3baaa2b4a34678f2417f844ddd695b5d2a40e5d20e26b37e65740a9f1",
      "transactionType": "CALL",
      "contractName": null,
      "contractAddress": "0x1c9c26334404cea6e4ce3222b3fbd0a2cacffce4",
      "function": "upgradeToAndCall(address,bytes)",
      "arguments": [
        "0x3fEA777108421A74b13fcaF1D45D2DD82DF5d529",
        "0x"
      ],
      "transaction": {
        "from": "0x0e06f13aead79a09f0ab85c373b565cecd5684c9",
        "to": "0x1c9c26334404cea6e4ce3222b3fbd0a2cacffce4",
        "gas": "0xd7f6",
        "value": "0x0",
        "input": "0x4f1ef2860000000000000000000000003fea777108421a74b13fcaf1d45d2dd82df5d52900000000000000000000000000000000000000000000000000000000000000400000000000000000000000000000000000000000000000000000000000000000",
        "nonce": "0xf",
        "chainId": "0x14a34"
      },
      "additionalContracts": [],
      "isFixedGasLimit": false
    }
  ],
  "receipts": [
    {
      "status": "0x1",
      "cumulativeGasUsed": "0xd0347a",
      "logs": [
        {
          "address": "0x1c9c26334404cea6e4ce3222b3fbd0a2cacffce4",
          "topics": [
            "0xbc7cd75a20ee27fd9adebab32041f755214dbc6bffa90cc0225b39da2e5c2d3b",
            "0x0000000000000000000000003fea777108421a74b13fcaf1d45d2dd82df5d529"
          ],
          "data": "0x",
          "blockHash": "0x944725258503f912c9dcbabe42a7e103604685a1e1933ec5cf4614caf4007500",
          "blockNumber": "0x1f877f2",
          "blockTimestamp": "0x69044ec4",
          "transactionHash": "0xd4843ad3baaa2b4a34678f2417f844ddd695b5d2a40e5d20e26b37e65740a9f1",
          "transactionIndex": "0x11",
          "logIndex": "0x126",
          "removed": false
        }
      ],
      "logsBloom": "0x00000000000000000000000000000000400000000000000000000000000000000000000000000000000000000000000000000000000000000000000000000000000000000000000000000000000002000000000000000000080000000000000001000000000002000000000000000000000000000000000000000000000000000000000000000000000000000000000000000001000000000000000000000000000000000080000000000000000000000000000000000000000000000000000000000020000000000000000000000000000000000000000000000000000000000000000008000000000000000000000000000000000000000000000000000000",
      "type": "0x2",
      "transactionHash": "0xd4843ad3baaa2b4a34678f2417f844ddd695b5d2a40e5d20e26b37e65740a9f1",
      "transactionIndex": "0x11",
      "blockHash": "0x944725258503f912c9dcbabe42a7e103604685a1e1933ec5cf4614caf4007500",
      "blockNumber": "0x1f877f2",
      "gasUsed": "0x93ab",
      "effectiveGasPrice": "0xf428a",
      "from": "0x0e06f13aead79a09f0ab85c373b565cecd5684c9",
      "to": "0x1c9c26334404cea6e4ce3222b3fbd0a2cacffce4",
      "contractAddress": null,
      "l1BaseFeeScalar": "0x44d",
      "l1BlobBaseFee": "0x1",
      "l1BlobBaseFeeScalar": "0xa118b",
      "l1Fee": "0x53",
      "l1GasPrice": "0xa",
      "l1GasUsed": "0x640"
    }
  ],
  "libraries": [],
  "pending": [],
  "returns": {},
  "timestamp": 1761889986,
  "chain": 84532,
  "commit": "caa6240"
}